{
  "contractName": "Crud",
  "abi": [
    {
      "constant": true,
      "inputs": [
        {
          "name": "",
          "type": "uint256"
        }
      ],
      "name": "users",
      "outputs": [
        {
          "name": "id",
          "type": "uint256"
        },
        {
          "name": "name",
          "type": "string"
        }
      ],
      "payable": false,
      "stateMutability": "view",
      "type": "function"
    },
    {
      "constant": true,
      "inputs": [],
      "name": "nextId",
      "outputs": [
        {
          "name": "",
          "type": "uint256"
        }
      ],
      "payable": false,
      "stateMutability": "view",
      "type": "function"
    },
    {
      "constant": false,
      "inputs": [
        {
          "name": "_name",
          "type": "string"
        }
      ],
      "name": "create",
      "outputs": [],
      "payable": false,
      "stateMutability": "nonpayable",
      "type": "function"
    },
    {
      "constant": true,
      "inputs": [
        {
          "name": "_id",
          "type": "uint256"
        }
      ],
      "name": "read",
      "outputs": [
        {
          "name": "",
          "type": "uint256"
        },
        {
          "name": "",
          "type": "string"
        }
      ],
      "payable": false,
      "stateMutability": "view",
      "type": "function"
    },
    {
      "constant": false,
      "inputs": [
        {
          "name": "_id",
          "type": "uint256"
        },
        {
          "name": "_name",
          "type": "string"
        }
      ],
      "name": "update",
      "outputs": [],
      "payable": false,
      "stateMutability": "nonpayable",
      "type": "function"
    },
    {
      "constant": false,
      "inputs": [
        {
          "name": "_id",
          "type": "uint256"
        }
      ],
      "name": "deleteUser",
      "outputs": [],
      "payable": false,
      "stateMutability": "nonpayable",
      "type": "function"
    }
  ],
  "bytecode": "0x60806040526001805534801561001457600080fd5b50610842806100246000396000f300608060405260043610610078576000357c0100000000000000000000000000000000000000000000000000000000900463ffffffff168063365b98b21461007d57806338f148451461012a57806361b8ce8c14610157578063b6a46b3b14610182578063ed2e5a97146101eb578063f745630f14610298575b600080fd5b34801561008957600080fd5b506100a86004803603810190808035906020019092919050505061030b565b6040518083815260200180602001828103825283818151815260200191508051906020019080838360005b838110156100ee5780820151818401526020810190506100d3565b50505050905090810190601f16801561011b5780820380516001836020036101000a031916815260200191505b50935050505060405180910390f35b34801561013657600080fd5b50610155600480360381019080803590602001909291905050506103d6565b005b34801561016357600080fd5b5061016c61041f565b6040518082815260200191505060405180910390f35b34801561018e57600080fd5b506101e9600480360381019080803590602001908201803590602001908080601f0160208091040260200160405190810160405280939291908181526020018383808284378201915050505050509192919290505050610425565b005b3480156101f757600080fd5b50610216600480360381019080803590602001909291905050506104a4565b6040518083815260200180602001828103825283818151815260200191508051906020019080838360005b8381101561025c578082015181840152602081019050610241565b50505050905090810190601f1680156102895780820380516001836020036101000a031916815260200191505b50935050505060405180910390f35b3480156102a457600080fd5b5061030960048036038101908080359060200190929190803590602001908201803590602001908080601f016020809104026020016040519081016040528093929190818152602001838380828437820191505050505050919291929050505061059c565b005b60008181548110151561031a57fe5b9060005260206000209060020201600091509050806000015490806001018054600181600116156101000203166002900480601f0160208091040260200160405190810160405280929190818152602001828054600181600116156101000203166002900480156103cc5780601f106103a1576101008083540402835291602001916103cc565b820191906000526020600020905b8154815290600101906020018083116103af57829003601f168201915b5050505050905082565b60006103e1826105e3565b90506000818154811015156103f257fe5b906000526020600020906002020160008082016000905560018201600061041991906106a9565b50505050565b60015481565b6000604080519081016040528060016000815480929190600101919050558152602001838152509080600181540180825580915050906001820390600052602060002090600202016000909192909190915060008201518160000155602082015181600101908051906020019061049d9291906106f1565b5050505050565b6000606060006104b3846105e3565b90506000818154811015156104c457fe5b9060005260206000209060020201600001546000828154811015156104e557fe5b9060005260206000209060020201600101808054600181600116156101000203166002900480601f01602080910402602001604051908101604052809291908181526020018280546001816001161561010002031660029004801561058b5780601f106105605761010080835404028352916020019161058b565b820191906000526020600020905b81548152906001019060200180831161056e57829003601f168201915b505050505090509250925050915091565b60006105a7836105e3565b9050816000828154811015156105b957fe5b906000526020600020906002020160010190805190602001906105dd929190610771565b50505050565b600080600090505b600080549050811015610635578260008281548110151561060857fe5b9060005260206000209060020201600001541415610628578091506106a3565b80806001019150506105eb565b6040517f08c379a00000000000000000000000000000000000000000000000000000000081526004018080602001828103825260148152602001807f5573657220646f6573206e6f742065786973742100000000000000000000000081525060200191505060405180910390fd5b50919050565b50805460018160011615610100020316600290046000825580601f106106cf57506106ee565b601f0160209004906000526020600020908101906106ed91906107f1565b5b50565b828054600181600116156101000203166002900490600052602060002090601f016020900481019282601f1061073257805160ff1916838001178555610760565b82800160010185558215610760579182015b8281111561075f578251825591602001919060010190610744565b5b50905061076d91906107f1565b5090565b828054600181600116156101000203166002900490600052602060002090601f016020900481019282601f106107b257805160ff19168380011785556107e0565b828001600101855582156107e0579182015b828111156107df5782518255916020019190600101906107c4565b5b5090506107ed91906107f1565b5090565b61081391905b8082111561080f5760008160009055506001016107f7565b5090565b905600a165627a7a72305820c288b2bb33641934ce2a416ab2c5653e0f05631aaac1f33395d2d672f76ce4ff0029",
  "source": "pragma solidity ^0.4.6;\n\ncontract Crud {\n  struct User {\n    uint id;\n    string name;\n  }\n  \n  User[] public users;\n  uint public nextId = 1;\n  \n  function create(string memory _name) public {\n    users.push(User({id: nextId++, name: _name}));  \n  }\n  \n  function read(uint _id) public view returns(uint, string memory) {\n    uint i = find(_id);\n    return(users[i].id, users[i].name); \n  }\n \n  \n  function update(uint _id, string memory _name) public {\n    uint i = find(_id);  \n    users[i].name = _name; \n  }\n  \n  function deleteUser(uint _id) public {\n    uint i = find(_id);    \n    delete users[i]; \n  }\n  \n  function find(uint _id) view internal returns(uint) {\n    for (uint i = 0; i < users.length; i++) {\n      if (users[i].id == _id) {      \n        return i;\n      }\n    }\n    revert('User does not exist!');\n  }\n}",
  "sourcePath": "/home/admin/git/project-www/contracts/ProjectCrud.sol",
  "compiler": {
    "name": "solc",
    "version": "0.4.26+commit.4563c3fc.Emscripten.clang"
  },
  "schemaVersion": "2.0.3",
  "updatedAt": "2019-11-08T05:52:35.974Z"
}