{
  "contractName": "HalCoin",
  "abi": [
    {
      "constant": true,
      "inputs": [],
      "name": "name",
      "outputs": [
        {
          "name": "",
          "type": "string"
        }
      ],
      "payable": false,
      "stateMutability": "view",
      "type": "function"
    },
    {
      "constant": true,
      "inputs": [],
      "name": "totalSupply",
      "outputs": [
        {
          "name": "",
          "type": "uint256"
        }
      ],
      "payable": false,
      "stateMutability": "view",
      "type": "function"
    },
    {
      "constant": true,
      "inputs": [],
      "name": "decimals",
      "outputs": [
        {
          "name": "",
          "type": "uint8"
        }
      ],
      "payable": false,
      "stateMutability": "view",
      "type": "function"
    },
    {
      "constant": true,
      "inputs": [],
      "name": "symbol",
      "outputs": [
        {
          "name": "",
          "type": "string"
        }
      ],
      "payable": false,
      "stateMutability": "view",
      "type": "function"
    },
    {
      "anonymous": false,
      "inputs": [
        {
          "indexed": true,
          "name": "from",
          "type": "address"
        },
        {
          "indexed": true,
          "name": "to",
          "type": "address"
        },
        {
          "indexed": false,
          "name": "value",
          "type": "uint256"
        }
      ],
      "name": "Transfer",
      "type": "event"
    },
    {
      "constant": false,
      "inputs": [
        {
          "name": "_myaddr",
          "type": "address"
        },
        {
          "name": "_supply",
          "type": "uint256"
        },
        {
          "name": "_name",
          "type": "string"
        },
        {
          "name": "_symbol",
          "type": "string"
        },
        {
          "name": "_decimals",
          "type": "uint8"
        }
      ],
      "name": "halCoin",
      "outputs": [],
      "payable": false,
      "stateMutability": "nonpayable",
      "type": "function"
    },
    {
      "constant": false,
      "inputs": [
        {
          "name": "_myaddr",
          "type": "address"
        },
        {
          "name": "_to",
          "type": "address"
        },
        {
          "name": "_value",
          "type": "uint256"
        }
      ],
      "name": "transfer",
      "outputs": [],
      "payable": false,
      "stateMutability": "nonpayable",
      "type": "function"
    }
  ],
  "bytecode": "0x608060405234801561001057600080fd5b506107ea806100206000396000f300608060405260043610610078576000357c0100000000000000000000000000000000000000000000000000000000900463ffffffff16806306fdde031461007d57806318160ddd1461010d578063313ce5671461013857806395d89b4114610169578063beabacc8146101f9578063dfadf40714610266575b600080fd5b34801561008957600080fd5b5061009261034c565b6040518080602001828103825283818151815260200191508051906020019080838360005b838110156100d25780820151818401526020810190506100b7565b50505050905090810190601f1680156100ff5780820380516001836020036101000a031916815260200191505b509250505060405180910390f35b34801561011957600080fd5b506101226103ea565b6040518082815260200191505060405180910390f35b34801561014457600080fd5b5061014d6103f0565b604051808260ff1660ff16815260200191505060405180910390f35b34801561017557600080fd5b5061017e610403565b6040518080602001828103825283818151815260200191508051906020019080838360005b838110156101be5780820151818401526020810190506101a3565b50505050905090810190601f1680156101eb5780820380516001836020036101000a031916815260200191505b509250505060405180910390f35b34801561020557600080fd5b50610264600480360381019080803573ffffffffffffffffffffffffffffffffffffffff169060200190929190803573ffffffffffffffffffffffffffffffffffffffff169060200190929190803590602001909291905050506104a1565b005b34801561027257600080fd5b5061034a600480360381019080803573ffffffffffffffffffffffffffffffffffffffff16906020019092919080359060200190929190803590602001908201803590602001908080601f0160208091040260200160405190810160405280939291908181526020018383808284378201915050505050509192919290803590602001908201803590602001908080601f0160208091040260200160405190810160405280939291908181526020018383808284378201915050505050509192919290803560ff16906020019092919050505061067e565b005b60008054600181600116156101000203166002900480601f0160208091040260200160405190810160405280929190818152602001828054600181600116156101000203166002900480156103e25780601f106103b7576101008083540402835291602001916103e2565b820191906000526020600020905b8154815290600101906020018083116103c557829003601f168201915b505050505081565b60035481565b600260009054906101000a900460ff1681565b60018054600181600116156101000203166002900480601f0160208091040260200160405190810160405280929190818152602001828054600181600116156101000203166002900480156104995780601f1061046e57610100808354040283529160200191610499565b820191906000526020600020905b81548152906001019060200180831161047c57829003601f168201915b505050505081565b80600460008573ffffffffffffffffffffffffffffffffffffffff1673ffffffffffffffffffffffffffffffffffffffff1681526020019081526020016000205410156104ed57600080fd5b600460008373ffffffffffffffffffffffffffffffffffffffff1673ffffffffffffffffffffffffffffffffffffffff1681526020019081526020016000205481600460008573ffffffffffffffffffffffffffffffffffffffff1673ffffffffffffffffffffffffffffffffffffffff1681526020019081526020016000205401101561057a57600080fd5b80600460008573ffffffffffffffffffffffffffffffffffffffff1673ffffffffffffffffffffffffffffffffffffffff1681526020019081526020016000206000828254039250508190555080600460008473ffffffffffffffffffffffffffffffffffffffff1673ffffffffffffffffffffffffffffffffffffffff168152602001908152602001600020600082825401925050819055508173ffffffffffffffffffffffffffffffffffffffff168373ffffffffffffffffffffffffffffffffffffffff167fddf252ad1be2c89b69c2b068fc378daa952ba7f163c4a11628f55a4df523b3ef836040518082815260200191505060405180910390a3505050565b83600460008773ffffffffffffffffffffffffffffffffffffffff1673ffffffffffffffffffffffffffffffffffffffff1681526020019081526020016000208190555082600090805190602001906106d8929190610719565b5081600190805190602001906106ef929190610719565b5080600260006101000a81548160ff021916908360ff160217905550836003819055505050505050565b828054600181600116156101000203166002900490600052602060002090601f016020900481019282601f1061075a57805160ff1916838001178555610788565b82800160010185558215610788579182015b8281111561078757825182559160200191906001019061076c565b5b5090506107959190610799565b5090565b6107bb91905b808211156107b757600081600090555060010161079f565b5090565b905600a165627a7a72305820c49d16ede4192d57787080dff3be55a4cf3dec6050a981d85014db728b992f280029",
  "source": "pragma solidity ^0.4.8;\n\ncontract HalCoin {\n    // (1) 상태 변수 선언\n    string public name; // 토큰 이름\n    string public symbol; // 토큰 단위\n    uint8 public decimals; // 소수점 이하 자릿수\n    uint256 public totalSupply; // 토큰 종량\n\n    mapping (address => uint256) private balanceOf; // 각 주소의 잔고\n\n    // (2) 이벤트 알림\n    event Transfer(address indexed from, address indexed to, uint256 value);\n\n    // (3) 생성자\n    function halCoin(address _myaddr, uint256 _supply, string _name, string _symbol, uint8 _decimals)\n    {\n        balanceOf[_myaddr] = _supply;\n        name = _name;\n        symbol = _symbol;\n        decimals = _decimals;\n        totalSupply = _supply;\n    }\n\n    // (4) 송금\n    function transfer(address _myaddr, address _to, uint256 _value)\n    {\n        // (5) 부정 송금 확인\n        if (balanceOf[_myaddr] < _value) throw;\n        if (balanceOf[_to] + _value < balanceOf[_to]) throw;\n        // (6) 송금하는 주소와 송금받는 주소의 잔고 갱신\n        balanceOf[_myaddr] -= _value;\n        balanceOf[_to] += _value;\n        // (7) 이벤트 알림\n        Transfer(_myaddr, _to, _value);\n    }\n}",
  "sourcePath": "/home/admin/git/project-www/contracts/HalCoin.sol",
  "compiler": {
    "name": "solc",
    "version": "0.4.26+commit.4563c3fc.Emscripten.clang"
  },
  "schemaVersion": "2.0.3",
  "updatedAt": "2019-11-14T17:11:46.796Z"
}