{
  "contractName": "UserCrud",
  "abi": [
    {
      "anonymous": false,
      "inputs": [
        {
          "indexed": true,
          "name": "userAddress",
          "type": "address"
        },
        {
          "indexed": false,
          "name": "index",
          "type": "uint256"
        },
        {
          "indexed": false,
          "name": "userEmail",
          "type": "string"
        },
        {
          "indexed": false,
          "name": "userAge",
          "type": "uint256"
        }
      ],
      "name": "LogNewUser",
      "type": "event"
    },
    {
      "anonymous": false,
      "inputs": [
        {
          "indexed": true,
          "name": "userAddress",
          "type": "address"
        },
        {
          "indexed": false,
          "name": "index",
          "type": "uint256"
        },
        {
          "indexed": false,
          "name": "userEmail",
          "type": "string"
        },
        {
          "indexed": false,
          "name": "userAge",
          "type": "uint256"
        }
      ],
      "name": "LogUpdateUser",
      "type": "event"
    },
    {
      "anonymous": false,
      "inputs": [
        {
          "indexed": true,
          "name": "userAddress",
          "type": "address"
        },
        {
          "indexed": false,
          "name": "index",
          "type": "uint256"
        }
      ],
      "name": "LogDeleteUser",
      "type": "event"
    },
    {
      "constant": true,
      "inputs": [
        {
          "name": "userAddress",
          "type": "address"
        }
      ],
      "name": "isUser",
      "outputs": [
        {
          "name": "isIndeed",
          "type": "bool"
        }
      ],
      "payable": false,
      "stateMutability": "view",
      "type": "function"
    },
    {
      "constant": false,
      "inputs": [
        {
          "name": "userAddress",
          "type": "address"
        },
        {
          "name": "userEmail",
          "type": "string"
        },
        {
          "name": "userAge",
          "type": "uint256"
        },
        {
          "name": "userPoint",
          "type": "int256"
        }
      ],
      "name": "insertUser",
      "outputs": [
        {
          "name": "index",
          "type": "uint256"
        }
      ],
      "payable": false,
      "stateMutability": "nonpayable",
      "type": "function"
    },
    {
      "constant": false,
      "inputs": [
        {
          "name": "userAddress",
          "type": "address"
        }
      ],
      "name": "deleteUser",
      "outputs": [
        {
          "name": "index",
          "type": "uint256"
        }
      ],
      "payable": false,
      "stateMutability": "nonpayable",
      "type": "function"
    },
    {
      "constant": true,
      "inputs": [
        {
          "name": "userAddress",
          "type": "address"
        }
      ],
      "name": "getUser",
      "outputs": [
        {
          "name": "userEmail",
          "type": "string"
        },
        {
          "name": "userAge",
          "type": "uint256"
        },
        {
          "name": "userPoint",
          "type": "int256"
        },
        {
          "name": "index",
          "type": "uint256"
        }
      ],
      "payable": false,
      "stateMutability": "view",
      "type": "function"
    },
    {
      "constant": false,
      "inputs": [
        {
          "name": "userAddress",
          "type": "address"
        },
        {
          "name": "userEmail",
          "type": "string"
        }
      ],
      "name": "updateUserEmail",
      "outputs": [
        {
          "name": "success",
          "type": "bool"
        }
      ],
      "payable": false,
      "stateMutability": "nonpayable",
      "type": "function"
    },
    {
      "constant": false,
      "inputs": [
        {
          "name": "userAddress",
          "type": "address"
        },
        {
          "name": "userAge",
          "type": "uint256"
        }
      ],
      "name": "updateUserAge",
      "outputs": [
        {
          "name": "success",
          "type": "bool"
        }
      ],
      "payable": false,
      "stateMutability": "nonpayable",
      "type": "function"
    },
    {
      "constant": false,
      "inputs": [
        {
          "name": "userAddress",
          "type": "address"
        },
        {
          "name": "userPoint",
          "type": "int256"
        }
      ],
      "name": "updateUserPoint",
      "outputs": [
        {
          "name": "success",
          "type": "bool"
        }
      ],
      "payable": false,
      "stateMutability": "nonpayable",
      "type": "function"
    },
    {
      "constant": true,
      "inputs": [],
      "name": "getUserCount",
      "outputs": [
        {
          "name": "count",
          "type": "uint256"
        }
      ],
      "payable": false,
      "stateMutability": "view",
      "type": "function"
    },
    {
      "constant": true,
      "inputs": [
        {
          "name": "index",
          "type": "uint256"
        }
      ],
      "name": "getUserAtIndex",
      "outputs": [
        {
          "name": "userAddress",
          "type": "address"
        }
      ],
      "payable": false,
      "stateMutability": "view",
      "type": "function"
    }
  ],
  "bytecode": "0x608060405234801561001057600080fd5b506112c1806100206000396000f300608060405260043610610099576000357c0100000000000000000000000000000000000000000000000000000000900463ffffffff1680631c8ee0ec1461009e5780632e071db3146101035780634209fff1146101685780635c60f226146101c357806364319ae61461021a57806369bd0f19146102bb5780636f77926b1461036c578063b5cb15f71461043d578063ffcc7bbf14610468575b600080fd5b3480156100aa57600080fd5b506100e9600480360381019080803573ffffffffffffffffffffffffffffffffffffffff169060200190929190803590602001909291905050506104d5565b604051808215151515815260200191505060405180910390f35b34801561010f57600080fd5b5061014e600480360381019080803573ffffffffffffffffffffffffffffffffffffffff16906020019092919080359060200190929190505050610597565b604051808215151515815260200191505060405180910390f35b34801561017457600080fd5b506101a9600480360381019080803573ffffffffffffffffffffffffffffffffffffffff16906020019092919050505061075e565b604051808215151515815260200191505060405180910390f35b3480156101cf57600080fd5b50610204600480360381019080803573ffffffffffffffffffffffffffffffffffffffff169060200190929190505050610827565b6040518082815260200191505060405180910390f35b34801561022657600080fd5b506102a1600480360381019080803573ffffffffffffffffffffffffffffffffffffffff169060200190929190803590602001908201803590602001908080601f0160208091040260200160405190810160405280939291908181526020018383808284378201915050505050509192919290505050610b33565b604051808215151515815260200191505060405180910390f35b3480156102c757600080fd5b50610356600480360381019080803573ffffffffffffffffffffffffffffffffffffffff169060200190929190803590602001908201803590602001908080601f01602080910402602001604051908101604052809392919081815260200183838082843782019150505050505091929192908035906020019092919080359060200190929190505050610cee565b6040518082815260200191505060405180910390f35b34801561037857600080fd5b506103ad600480360381019080803573ffffffffffffffffffffffffffffffffffffffff169060200190929190505050610fa7565b6040518080602001858152602001848152602001838152602001828103825286818151815260200191508051906020019080838360005b838110156103ff5780820151818401526020810190506103e4565b50505050905090810190601f16801561042c5780820380516001836020036101000a031916815260200191505b509550505050505060405180910390f35b34801561044957600080fd5b50610452611174565b6040518082815260200191505060405180910390f35b34801561047457600080fd5b5061049360048036038101908080359060200190929190505050611181565b604051808273ffffffffffffffffffffffffffffffffffffffff1673ffffffffffffffffffffffffffffffffffffffff16815260200191505060405180910390f35b60006104e08361075e565b15156104eb57600080fd5b6000826000808673ffffffffffffffffffffffffffffffffffffffff1673ffffffffffffffffffffffffffffffffffffffff16815260200190815260200160002060020154011215151561053e57600080fd5b816000808573ffffffffffffffffffffffffffffffffffffffff1673ffffffffffffffffffffffffffffffffffffffff168152602001908152602001600020600201600082825401925050819055506001905092915050565b60006105a28361075e565b15156105ad57600080fd5b816000808573ffffffffffffffffffffffffffffffffffffffff1673ffffffffffffffffffffffffffffffffffffffff168152602001908152602001600020600101819055508273ffffffffffffffffffffffffffffffffffffffff167fe0d03264c4e763e1dd9a479aefbd0cb19a8a9045c5629e6fe975e20310cf04b26000808673ffffffffffffffffffffffffffffffffffffffff1673ffffffffffffffffffffffffffffffffffffffff168152602001908152602001600020600301546000808773ffffffffffffffffffffffffffffffffffffffff1673ffffffffffffffffffffffffffffffffffffffff1681526020019081526020016000206000018560405180848152602001806020018381526020018281038252848181546001816001161561010002031660029004815260200191508054600181600116156101000203166002900480156107445780601f1061071957610100808354040283529160200191610744565b820191906000526020600020905b81548152906001019060200180831161072757829003601f168201915b505094505050505060405180910390a26001905092915050565b60008060018054905014156107765760009050610822565b8173ffffffffffffffffffffffffffffffffffffffff1660016000808573ffffffffffffffffffffffffffffffffffffffff1673ffffffffffffffffffffffffffffffffffffffff168152602001908152602001600020600301548154811015156107dd57fe5b9060005260206000200160009054906101000a900473ffffffffffffffffffffffffffffffffffffffff1673ffffffffffffffffffffffffffffffffffffffff161490505b919050565b60008060006108358461075e565b151561084057600080fd5b6000808573ffffffffffffffffffffffffffffffffffffffff1673ffffffffffffffffffffffffffffffffffffffff16815260200190815260200160002060030154915060018080805490500381548110151561089957fe5b9060005260206000200160009054906101000a900473ffffffffffffffffffffffffffffffffffffffff169050806001838154811015156108d657fe5b9060005260206000200160006101000a81548173ffffffffffffffffffffffffffffffffffffffff021916908373ffffffffffffffffffffffffffffffffffffffff160217905550816000808373ffffffffffffffffffffffffffffffffffffffff1673ffffffffffffffffffffffffffffffffffffffff16815260200190815260200160002060030181905550600180548091906001900361097991906111c4565b508373ffffffffffffffffffffffffffffffffffffffff167f9a67af531bfbfd34f63109e83cfab08e30f92a1827d5c3f50e8fa815469ff9f2836040518082815260200191505060405180910390a28073ffffffffffffffffffffffffffffffffffffffff167fe0d03264c4e763e1dd9a479aefbd0cb19a8a9045c5629e6fe975e20310cf04b2836000808573ffffffffffffffffffffffffffffffffffffffff1673ffffffffffffffffffffffffffffffffffffffff1681526020019081526020016000206000016000808673ffffffffffffffffffffffffffffffffffffffff1673ffffffffffffffffffffffffffffffffffffffff168152602001908152602001600020600101546040518084815260200180602001838152602001828103825284818154600181600116156101000203166002900481526020019150805460018160011615610100020316600290048015610b195780601f10610aee57610100808354040283529160200191610b19565b820191906000526020600020905b815481529060010190602001808311610afc57829003601f168201915b505094505050505060405180910390a28192505050919050565b6000610b3e8361075e565b1515610b4957600080fd5b816000808573ffffffffffffffffffffffffffffffffffffffff1673ffffffffffffffffffffffffffffffffffffffff1681526020019081526020016000206000019080519060200190610b9e9291906111f0565b508273ffffffffffffffffffffffffffffffffffffffff167fe0d03264c4e763e1dd9a479aefbd0cb19a8a9045c5629e6fe975e20310cf04b26000808673ffffffffffffffffffffffffffffffffffffffff1673ffffffffffffffffffffffffffffffffffffffff16815260200190815260200160002060030154846000808873ffffffffffffffffffffffffffffffffffffffff1673ffffffffffffffffffffffffffffffffffffffff168152602001908152602001600020600101546040518084815260200180602001838152602001828103825284818151815260200191508051906020019080838360005b83811015610ca8578082015181840152602081019050610c8d565b50505050905090810190601f168015610cd55780820380516001836020036101000a031916815260200191505b5094505050505060405180910390a26001905092915050565b6000610cf98561075e565b15610d0357600080fd5b836000808773ffffffffffffffffffffffffffffffffffffffff1673ffffffffffffffffffffffffffffffffffffffff1681526020019081526020016000206000019080519060200190610d589291906111f0565b50826000808773ffffffffffffffffffffffffffffffffffffffff1673ffffffffffffffffffffffffffffffffffffffff16815260200190815260200160002060010181905550816000808773ffffffffffffffffffffffffffffffffffffffff1673ffffffffffffffffffffffffffffffffffffffff168152602001908152602001600020600201819055506001808690806001815401808255809150509060018203906000526020600020016000909192909190916101000a81548173ffffffffffffffffffffffffffffffffffffffff021916908373ffffffffffffffffffffffffffffffffffffffff160217905550036000808773ffffffffffffffffffffffffffffffffffffffff1673ffffffffffffffffffffffffffffffffffffffff168152602001908152602001600020600301819055508473ffffffffffffffffffffffffffffffffffffffff167fd6fc9f7fcab9bfd8225c731fcdf3691c6e742993eeea0025153641c63e8f02826000808873ffffffffffffffffffffffffffffffffffffffff1673ffffffffffffffffffffffffffffffffffffffff1681526020019081526020016000206003015486866040518084815260200180602001838152602001828103825284818151815260200191508051906020019080838360005b83811015610f59578082015181840152602081019050610f3e565b50505050905090810190601f168015610f865780820380516001836020036101000a031916815260200191505b5094505050505060405180910390a260018080549050039050949350505050565b60606000806000610fb78561075e565b1515610fc257600080fd5b6000808673ffffffffffffffffffffffffffffffffffffffff1673ffffffffffffffffffffffffffffffffffffffff1681526020019081526020016000206000016000808773ffffffffffffffffffffffffffffffffffffffff1673ffffffffffffffffffffffffffffffffffffffff168152602001908152602001600020600101546000808873ffffffffffffffffffffffffffffffffffffffff1673ffffffffffffffffffffffffffffffffffffffff168152602001908152602001600020600201546000808973ffffffffffffffffffffffffffffffffffffffff1673ffffffffffffffffffffffffffffffffffffffff16815260200190815260200160002060030154838054600181600116156101000203166002900480601f01602080910402602001604051908101604052809291908181526020018280546001816001161561010002031660029004801561115e5780601f106111335761010080835404028352916020019161115e565b820191906000526020600020905b81548152906001019060200180831161114157829003601f168201915b5050505050935093509350935093509193509193565b6000600180549050905090565b600060018281548110151561119257fe5b9060005260206000200160009054906101000a900473ffffffffffffffffffffffffffffffffffffffff169050919050565b8154818355818111156111eb578183600052602060002091820191016111ea9190611270565b5b505050565b828054600181600116156101000203166002900490600052602060002090601f016020900481019282601f1061123157805160ff191683800117855561125f565b8280016001018555821561125f579182015b8281111561125e578251825591602001919060010190611243565b5b50905061126c9190611270565b5090565b61129291905b8082111561128e576000816000905550600101611276565b5090565b905600a165627a7a7230582089de273321972f68c4c62079697d9fdccdc9bc4b4a7095e2cca6c209f4b389b30029",
  "source": "pragma solidity ^0.4.6;\n\ncontract UserCrud {\n\n  struct UserStruct {\n    string userEmail;\n    uint userAge;\n    int userPoint;\n    uint index;\n  }\n  \n  mapping(address => UserStruct) private userStructs;\n  address[] private userIndex;\n\n  event LogNewUser   (address indexed userAddress, uint index, string userEmail, uint userAge);\n  event LogUpdateUser(address indexed userAddress, uint index, string userEmail, uint userAge);\n  event LogDeleteUser(address indexed userAddress, uint index);\n  \n  function isUser(address userAddress)\n    public \n    constant\n    returns(bool isIndeed) \n  {\n    if(userIndex.length == 0) return false;\n    return (userIndex[userStructs[userAddress].index] == userAddress);\n  }\n\n  function insertUser(\n    address userAddress, \n    string userEmail, \n    uint    userAge,\n    int    userPoint) \n    public\n    returns(uint index)\n  {\n    if(isUser(userAddress)) throw; \n    userStructs[userAddress].userEmail = userEmail;\n    userStructs[userAddress].userAge   = userAge;\n    userStructs[userAddress].userPoint   = userPoint;\n    userStructs[userAddress].index     = userIndex.push(userAddress)-1;\n    LogNewUser(\n        userAddress, \n        userStructs[userAddress].index, \n        userEmail, \n        userAge);\n    return userIndex.length-1;\n  }\n\n  function deleteUser(address userAddress) \n    public\n    returns(uint index)\n  {\n    if(!isUser(userAddress)) throw; \n    uint rowToDelete = userStructs[userAddress].index;\n    address keyToMove = userIndex[userIndex.length-1];\n    userIndex[rowToDelete] = keyToMove;\n    userStructs[keyToMove].index = rowToDelete; \n    userIndex.length--;\n    LogDeleteUser(\n        userAddress, \n        rowToDelete);\n    LogUpdateUser(\n        keyToMove, \n        rowToDelete, \n        userStructs[keyToMove].userEmail, \n        userStructs[keyToMove].userAge);\n    return rowToDelete;\n  }\n  \n  function getUser(address userAddress)\n    public \n    constant\n    returns(string userEmail, uint userAge, int userPoint, uint index)\n  {\n    if(!isUser(userAddress)) throw; \n    return(\n      userStructs[userAddress].userEmail, \n      userStructs[userAddress].userAge, \n      userStructs[userAddress].userPoint, \n      userStructs[userAddress].index);\n  } \n  \n  function updateUserEmail(address userAddress, string userEmail) \n    public\n    returns(bool success) \n  {\n    if(!isUser(userAddress)) throw; \n    userStructs[userAddress].userEmail = userEmail;\n    LogUpdateUser(\n      userAddress, \n      userStructs[userAddress].index,\n      userEmail, \n      userStructs[userAddress].userAge);\n    return true;\n  }\n  \n  function updateUserAge(address userAddress, uint userAge) \n    public\n    returns(bool success) \n  {\n    if(!isUser(userAddress)) throw; \n    userStructs[userAddress].userAge = userAge;\n    LogUpdateUser(\n      userAddress, \n      userStructs[userAddress].index,\n      userStructs[userAddress].userEmail, \n      userAge);\n    return true;\n  }\n  \n  function updateUserPoint(address userAddress, int userPoint) \n    public\n    returns(bool success) \n  {\n    if(!isUser(userAddress)) throw; \n    require(userStructs[userAddress].userPoint + userPoint >= 0);\n    userStructs[userAddress].userPoint += userPoint;\n    \n    return true;\n  }\n\n  function getUserCount() \n    public\n    constant\n    returns(uint count)\n  {\n    return userIndex.length;\n  }\n\n  function getUserAtIndex(uint index)\n    public\n    constant\n    returns(address userAddress)\n  {\n    return userIndex[index];\n  }\n}",
  "sourcePath": "/home/admin/git/project-www/contracts/UserCrud.sol",
  "compiler": {
    "name": "solc",
    "version": "0.4.26+commit.4563c3fc.Emscripten.clang"
  },
  "schemaVersion": "2.0.3",
  "updatedAt": "2019-10-31T08:49:10.322Z"
}