{
  "contractName": "UserCrud",
  "abi": [
    {
      "anonymous": false,
      "inputs": [
        {
          "indexed": true,
          "name": "userAddress",
          "type": "address"
        },
        {
          "indexed": false,
          "name": "index",
          "type": "uint256"
        },
        {
          "indexed": false,
          "name": "userEmail",
          "type": "string"
        },
        {
          "indexed": false,
          "name": "userName",
          "type": "string"
        },
        {
          "indexed": false,
          "name": "userPoint",
          "type": "int256"
        }
      ],
      "name": "LogNewUser",
      "type": "event"
    },
    {
      "anonymous": false,
      "inputs": [
        {
          "indexed": true,
          "name": "userAddress",
          "type": "address"
        },
        {
          "indexed": false,
          "name": "index",
          "type": "uint256"
        },
        {
          "indexed": false,
          "name": "userEmail",
          "type": "string"
        },
        {
          "indexed": false,
          "name": "userName",
          "type": "string"
        }
      ],
      "name": "LogUpdateUser",
      "type": "event"
    },
    {
      "anonymous": false,
      "inputs": [
        {
          "indexed": true,
          "name": "userAddress",
          "type": "address"
        },
        {
          "indexed": false,
          "name": "index",
          "type": "uint256"
        }
      ],
      "name": "LogDeleteUser",
      "type": "event"
    },
    {
      "constant": true,
      "inputs": [
        {
          "name": "userAddress",
          "type": "address"
        }
      ],
      "name": "isUser",
      "outputs": [
        {
          "name": "isIndeed",
          "type": "bool"
        }
      ],
      "payable": false,
      "stateMutability": "view",
      "type": "function"
    },
    {
      "constant": true,
      "inputs": [
        {
          "name": "userEmail",
          "type": "string"
        }
      ],
      "name": "isMyaddr",
      "outputs": [
        {
          "name": "isIndeed",
          "type": "bool"
        }
      ],
      "payable": false,
      "stateMutability": "view",
      "type": "function"
    },
    {
      "constant": false,
      "inputs": [
        {
          "name": "userAddress",
          "type": "address"
        },
        {
          "name": "userEmail",
          "type": "string"
        },
        {
          "name": "userName",
          "type": "string"
        },
        {
          "name": "userPoint",
          "type": "int256"
        }
      ],
      "name": "insertUser",
      "outputs": [
        {
          "name": "index",
          "type": "uint256"
        }
      ],
      "payable": false,
      "stateMutability": "nonpayable",
      "type": "function"
    },
    {
      "constant": false,
      "inputs": [
        {
          "name": "userAddress",
          "type": "address"
        }
      ],
      "name": "deleteUser",
      "outputs": [
        {
          "name": "index",
          "type": "uint256"
        }
      ],
      "payable": false,
      "stateMutability": "nonpayable",
      "type": "function"
    },
    {
      "constant": true,
      "inputs": [
        {
          "name": "userAddress",
          "type": "address"
        }
      ],
      "name": "getUser",
      "outputs": [
        {
          "name": "myAddr",
          "type": "address"
        },
        {
          "name": "userEmail",
          "type": "string"
        },
        {
          "name": "userName",
          "type": "string"
        },
        {
          "name": "userPoint",
          "type": "int256"
        },
        {
          "name": "index",
          "type": "uint256"
        }
      ],
      "payable": false,
      "stateMutability": "view",
      "type": "function"
    },
    {
      "constant": true,
      "inputs": [
        {
          "name": "userEmail",
          "type": "string"
        }
      ],
      "name": "getMyaddr",
      "outputs": [
        {
          "name": "myAddr",
          "type": "address"
        }
      ],
      "payable": false,
      "stateMutability": "view",
      "type": "function"
    },
    {
      "constant": false,
      "inputs": [
        {
          "name": "userAddress",
          "type": "address"
        },
        {
          "name": "userEmail",
          "type": "string"
        }
      ],
      "name": "updateUserEmail",
      "outputs": [
        {
          "name": "success",
          "type": "bool"
        }
      ],
      "payable": false,
      "stateMutability": "nonpayable",
      "type": "function"
    },
    {
      "constant": false,
      "inputs": [
        {
          "name": "userAddress",
          "type": "address"
        },
        {
          "name": "userName",
          "type": "string"
        }
      ],
      "name": "updateUserAge",
      "outputs": [
        {
          "name": "success",
          "type": "bool"
        }
      ],
      "payable": false,
      "stateMutability": "nonpayable",
      "type": "function"
    },
    {
      "constant": false,
      "inputs": [
        {
          "name": "userAddress",
          "type": "address"
        },
        {
          "name": "userPoint",
          "type": "int256"
        }
      ],
      "name": "updateUserPoint",
      "outputs": [
        {
          "name": "success",
          "type": "bool"
        }
      ],
      "payable": false,
      "stateMutability": "nonpayable",
      "type": "function"
    },
    {
      "constant": true,
      "inputs": [],
      "name": "getUserCount",
      "outputs": [
        {
          "name": "count",
          "type": "uint256"
        }
      ],
      "payable": false,
      "stateMutability": "view",
      "type": "function"
    },
    {
      "constant": true,
      "inputs": [
        {
          "name": "index",
          "type": "uint256"
        }
      ],
      "name": "getUserAtIndex",
      "outputs": [
        {
          "name": "userAddress",
          "type": "address"
        }
      ],
      "payable": false,
      "stateMutability": "view",
      "type": "function"
    }
  ],
  "bytecode": "0x608060405234801561001057600080fd5b50611bbc806100206000396000f3006080604052600436106100af576000357c0100000000000000000000000000000000000000000000000000000000900463ffffffff168063042963de146100b45780631c8ee0ec146101355780634209fff11461019a5780634e1b90e4146101f55780635467a0311461029e5780635c60f2261461038b57806364319ae6146103e25780636f77926b14610483578063a04ba64e146105ec578063b5cb15f71461068d578063ffcc7bbf146106b8575b600080fd5b3480156100c057600080fd5b5061011b600480360381019080803590602001908201803590602001908080601f0160208091040260200160405190810160405280939291908181526020018383808284378201915050505050509192919290505050610725565b604051808215151515815260200191505060405180910390f35b34801561014157600080fd5b50610180600480360381019080803573ffffffffffffffffffffffffffffffffffffffff1690602001909291908035906020019092919050505061090a565b604051808215151515815260200191505060405180910390f35b3480156101a657600080fd5b506101db600480360381019080803573ffffffffffffffffffffffffffffffffffffffff1690602001909291905050506109cc565b604051808215151515815260200191505060405180910390f35b34801561020157600080fd5b5061025c600480360381019080803590602001908201803590602001908080601f0160208091040260200160405190810160405280939291908181526020018383808284378201915050505050509192919290505050610a95565b604051808273ffffffffffffffffffffffffffffffffffffffff1673ffffffffffffffffffffffffffffffffffffffff16815260200191505060405180910390f35b3480156102aa57600080fd5b50610375600480360381019080803573ffffffffffffffffffffffffffffffffffffffff169060200190929190803590602001908201803590602001908080601f0160208091040260200160405190810160405280939291908181526020018383808284378201915050505050509192919290803590602001908201803590602001908080601f016020809104026020016040519081016040528093929190818152602001838380828437820191505050505050919291929080359060200190929190505050610b41565b6040518082815260200191505060405180910390f35b34801561039757600080fd5b506103cc600480360381019080803573ffffffffffffffffffffffffffffffffffffffff169060200190929190505050610f26565b6040518082815260200191505060405180910390f35b3480156103ee57600080fd5b50610469600480360381019080803573ffffffffffffffffffffffffffffffffffffffff169060200190929190803590602001908201803590602001908080601f01602080910402602001604051908101604052809392919081815260200183838082843782019150505050505091929192905050506112b5565b604051808215151515815260200191505060405180910390f35b34801561048f57600080fd5b506104c4600480360381019080803573ffffffffffffffffffffffffffffffffffffffff1690602001909291905050506114f1565b604051808673ffffffffffffffffffffffffffffffffffffffff1673ffffffffffffffffffffffffffffffffffffffff1681526020018060200180602001858152602001848152602001838103835287818151815260200191508051906020019080838360005b8381101561054657808201518184015260208101905061052b565b50505050905090810190601f1680156105735780820380516001836020036101000a031916815260200191505b50838103825286818151815260200191508051906020019080838360005b838110156105ac578082015181840152602081019050610591565b50505050905090810190601f1680156105d95780820380516001836020036101000a031916815260200191505b5097505050505050505060405180910390f35b3480156105f857600080fd5b50610673600480360381019080803573ffffffffffffffffffffffffffffffffffffffff169060200190929190803590602001908201803590602001908080601f0160208091040260200160405190810160405280939291908181526020018383808284378201915050505050509192919290505050611833565b604051808215151515815260200191505060405180910390f35b34801561069957600080fd5b506106a2611a6f565b6040518082815260200191505060405180910390f35b3480156106c457600080fd5b506106e360048036038101908080359060200190929190505050611a7c565b604051808273ffffffffffffffffffffffffffffffffffffffff1673ffffffffffffffffffffffffffffffffffffffff16815260200191505060405180910390f35b600080600280549050141561073d5760009050610905565b6001826040518082805190602001908083835b6020831015156107755780518252602082019150602081019050602083039250610750565b6001836020036101000a038019825116818451168082178552505050505050905001915050908152602001604051809103902060000160009054906101000a900473ffffffffffffffffffffffffffffffffffffffff1673ffffffffffffffffffffffffffffffffffffffff1660026000806001866040518082805190602001908083835b60208310151561081f57805182526020820191506020810190506020830392506107fa565b6001836020036101000a038019825116818451168082178552505050505050905001915050908152602001604051809103902060000160009054906101000a900473ffffffffffffffffffffffffffffffffffffffff1673ffffffffffffffffffffffffffffffffffffffff1673ffffffffffffffffffffffffffffffffffffffff168152602001908152602001600020600401548154811015156108c057fe5b9060005260206000200160009054906101000a900473ffffffffffffffffffffffffffffffffffffffff1673ffffffffffffffffffffffffffffffffffffffff161490505b919050565b6000610915836109cc565b151561092057600080fd5b6000826000808673ffffffffffffffffffffffffffffffffffffffff1673ffffffffffffffffffffffffffffffffffffffff16815260200190815260200160002060030154011215151561097357600080fd5b816000808573ffffffffffffffffffffffffffffffffffffffff1673ffffffffffffffffffffffffffffffffffffffff168152602001908152602001600020600301600082825401925050819055506001905092915050565b60008060028054905014156109e45760009050610a90565b8173ffffffffffffffffffffffffffffffffffffffff1660026000808573ffffffffffffffffffffffffffffffffffffffff1673ffffffffffffffffffffffffffffffffffffffff16815260200190815260200160002060040154815481101515610a4b57fe5b9060005260206000200160009054906101000a900473ffffffffffffffffffffffffffffffffffffffff1673ffffffffffffffffffffffffffffffffffffffff161490505b919050565b6000610aa082610725565b1515610aab57600080fd5b6001826040518082805190602001908083835b602083101515610ae35780518252602082019150602081019050602083039250610abe565b6001836020036101000a038019825116818451168082178552505050505050905001915050908152602001604051809103902060000160009054906101000a900473ffffffffffffffffffffffffffffffffffffffff169050919050565b6000610b4c856109cc565b15610b5657600080fd5b846001856040518082805190602001908083835b602083101515610b8f5780518252602082019150602081019050602083039250610b6a565b6001836020036101000a038019825116818451168082178552505050505050905001915050908152602001604051809103902060000160006101000a81548173ffffffffffffffffffffffffffffffffffffffff021916908373ffffffffffffffffffffffffffffffffffffffff160217905550836000808773ffffffffffffffffffffffffffffffffffffffff1673ffffffffffffffffffffffffffffffffffffffff1681526020019081526020016000206001019080519060200190610c58929190611abf565b50826000808773ffffffffffffffffffffffffffffffffffffffff1673ffffffffffffffffffffffffffffffffffffffff1681526020019081526020016000206002019080519060200190610cae929190611abf565b50816000808773ffffffffffffffffffffffffffffffffffffffff1673ffffffffffffffffffffffffffffffffffffffff16815260200190815260200160002060030181905550600160028690806001815401808255809150509060018203906000526020600020016000909192909190916101000a81548173ffffffffffffffffffffffffffffffffffffffff021916908373ffffffffffffffffffffffffffffffffffffffff160217905550036000808773ffffffffffffffffffffffffffffffffffffffff1673ffffffffffffffffffffffffffffffffffffffff168152602001908152602001600020600401819055508473ffffffffffffffffffffffffffffffffffffffff167f89827eaf0d6f895cd7e9b43bb6484d71a9356b1ec8f75707fc99820b8f4912436000808873ffffffffffffffffffffffffffffffffffffffff1673ffffffffffffffffffffffffffffffffffffffff16815260200190815260200160002060040154868686604051808581526020018060200180602001848152602001838103835286818151815260200191508051906020019080838360005b83811015610e6f578082015181840152602081019050610e54565b50505050905090810190601f168015610e9c5780820380516001836020036101000a031916815260200191505b50838103825285818151815260200191508051906020019080838360005b83811015610ed5578082015181840152602081019050610eba565b50505050905090810190601f168015610f025780820380516001836020036101000a031916815260200191505b50965050505050505060405180910390a26001600280549050039050949350505050565b6000806000610f34846109cc565b1515610f3f57600080fd5b6000808573ffffffffffffffffffffffffffffffffffffffff1673ffffffffffffffffffffffffffffffffffffffff1681526020019081526020016000206004015491506002600160028054905003815481101515610f9a57fe5b9060005260206000200160009054906101000a900473ffffffffffffffffffffffffffffffffffffffff16905080600283815481101515610fd757fe5b9060005260206000200160006101000a81548173ffffffffffffffffffffffffffffffffffffffff021916908373ffffffffffffffffffffffffffffffffffffffff160217905550816000808373ffffffffffffffffffffffffffffffffffffffff1673ffffffffffffffffffffffffffffffffffffffff16815260200190815260200160002060040181905550600280548091906001900361107a9190611b3f565b508373ffffffffffffffffffffffffffffffffffffffff167f9a67af531bfbfd34f63109e83cfab08e30f92a1827d5c3f50e8fa815469ff9f2836040518082815260200191505060405180910390a28073ffffffffffffffffffffffffffffffffffffffff167ff25d453e4228f2cf20319526966f1443a03fff8798d4cb4443f8de2de9af3202836000808573ffffffffffffffffffffffffffffffffffffffff1673ffffffffffffffffffffffffffffffffffffffff1681526020019081526020016000206001016000808673ffffffffffffffffffffffffffffffffffffffff1673ffffffffffffffffffffffffffffffffffffffff1681526020019081526020016000206002016040518084815260200180602001806020018381038352858181546001816001161561010002031660029004815260200191508054600181600116156101000203166002900480156112175780601f106111ec57610100808354040283529160200191611217565b820191906000526020600020905b8154815290600101906020018083116111fa57829003601f168201915b505083810382528481815460018160011615610100020316600290048152602001915080546001816001161561010002031660029004801561129a5780601f1061126f5761010080835404028352916020019161129a565b820191906000526020600020905b81548152906001019060200180831161127d57829003601f168201915b50509550505050505060405180910390a28192505050919050565b60006112c0836109cc565b15156112cb57600080fd5b816000808573ffffffffffffffffffffffffffffffffffffffff1673ffffffffffffffffffffffffffffffffffffffff1681526020019081526020016000206001019080519060200190611320929190611abf565b508273ffffffffffffffffffffffffffffffffffffffff167ff25d453e4228f2cf20319526966f1443a03fff8798d4cb4443f8de2de9af32026000808673ffffffffffffffffffffffffffffffffffffffff1673ffffffffffffffffffffffffffffffffffffffff16815260200190815260200160002060040154846000808873ffffffffffffffffffffffffffffffffffffffff1673ffffffffffffffffffffffffffffffffffffffff168152602001908152602001600020600201604051808481526020018060200180602001838103835285818151815260200191508051906020019080838360005b8381101561142757808201518184015260208101905061140c565b50505050905090810190601f1680156114545780820380516001836020036101000a031916815260200191505b508381038252848181546001816001161561010002031660029004815260200191508054600181600116156101000203166002900480156114d65780601f106114ab576101008083540402835291602001916114d6565b820191906000526020600020905b8154815290600101906020018083116114b957829003601f168201915b50509550505050505060405180910390a26001905092915050565b6000606080600080611502866109cc565b151561150d57600080fd5b60016000808873ffffffffffffffffffffffffffffffffffffffff1673ffffffffffffffffffffffffffffffffffffffff16815260200190815260200160002060010160405180828054600181600116156101000203166002900480156115ab5780601f106115895761010080835404028352918201916115ab565b820191906000526020600020905b815481529060010190602001808311611597575b5050915050908152602001604051809103902060000160009054906101000a900473ffffffffffffffffffffffffffffffffffffffff166000808873ffffffffffffffffffffffffffffffffffffffff1673ffffffffffffffffffffffffffffffffffffffff1681526020019081526020016000206001016000808973ffffffffffffffffffffffffffffffffffffffff1673ffffffffffffffffffffffffffffffffffffffff1681526020019081526020016000206002016000808a73ffffffffffffffffffffffffffffffffffffffff1673ffffffffffffffffffffffffffffffffffffffff168152602001908152602001600020600301546000808b73ffffffffffffffffffffffffffffffffffffffff1673ffffffffffffffffffffffffffffffffffffffff16815260200190815260200160002060040154838054600181600116156101000203166002900480601f01602080910402602001604051908101604052809291908181526020018280546001816001161561010002031660029004801561177d5780601f106117525761010080835404028352916020019161177d565b820191906000526020600020905b81548152906001019060200180831161176057829003601f168201915b50505050509350828054600181600116156101000203166002900480601f0160208091040260200160405190810160405280929190818152602001828054600181600116156101000203166002900480156118195780601f106117ee57610100808354040283529160200191611819565b820191906000526020600020905b8154815290600101906020018083116117fc57829003601f168201915b505050505092509450945094509450945091939590929450565b600061183e836109cc565b151561184957600080fd5b816000808573ffffffffffffffffffffffffffffffffffffffff1673ffffffffffffffffffffffffffffffffffffffff168152602001908152602001600020600201908051906020019061189e929190611abf565b508273ffffffffffffffffffffffffffffffffffffffff167ff25d453e4228f2cf20319526966f1443a03fff8798d4cb4443f8de2de9af32026000808673ffffffffffffffffffffffffffffffffffffffff1673ffffffffffffffffffffffffffffffffffffffff168152602001908152602001600020600401546000808773ffffffffffffffffffffffffffffffffffffffff1673ffffffffffffffffffffffffffffffffffffffff168152602001908152602001600020600101856040518084815260200180602001806020018381038352858181546001816001161561010002031660029004815260200191508054600181600116156101000203166002900480156119ee5780601f106119c3576101008083540402835291602001916119ee565b820191906000526020600020905b8154815290600101906020018083116119d157829003601f168201915b5050838103825284818151815260200191508051906020019080838360005b83811015611a28578082015181840152602081019050611a0d565b50505050905090810190601f168015611a555780820380516001836020036101000a031916815260200191505b509550505050505060405180910390a26001905092915050565b6000600280549050905090565b6000600282815481101515611a8d57fe5b9060005260206000200160009054906101000a900473ffffffffffffffffffffffffffffffffffffffff169050919050565b828054600181600116156101000203166002900490600052602060002090601f016020900481019282601f10611b0057805160ff1916838001178555611b2e565b82800160010185558215611b2e579182015b82811115611b2d578251825591602001919060010190611b12565b5b509050611b3b9190611b6b565b5090565b815481835581811115611b6657818360005260206000209182019101611b659190611b6b565b5b505050565b611b8d91905b80821115611b89576000816000905550600101611b71565b5090565b905600a165627a7a7230582083260cf9b486fed58806e945a7093de7ee32263ec63207c840535e3abc0738b80029",
  "source": "pragma solidity ^0.4.6;\n\ncontract UserCrud {\n\n  struct UserStruct {\n    address myAddr;\n    string userEmail;\n    string userName;\n    int userPoint;\n    uint index;\n  }\n  \n  mapping(address => UserStruct) private userStructs;\n  mapping(string => UserStruct) private addrStructs;\n  address[] private userIndex;\n\n  event LogNewUser   (address indexed userAddress, uint index, string userEmail, string userName, int userPoint);\n  event LogUpdateUser(address indexed userAddress, uint index, string userEmail, string userName);\n  event LogDeleteUser(address indexed userAddress, uint index);\n  \n  function isUser(address userAddress)\n    public \n    constant\n    returns(bool isIndeed) \n  {\n    if(userIndex.length == 0) return false;\n    return (userIndex[userStructs[userAddress].index] == userAddress);\n  }\n\n  function isMyaddr(string userEmail)\n    public \n    constant\n    returns(bool isIndeed) \n  {\n    if(userIndex.length == 0) return false;\n    return (userIndex[userStructs[addrStructs[userEmail].myAddr].index] == addrStructs[userEmail].myAddr);\n  }\n\n  function insertUser(\n    address userAddress, \n    string userEmail, \n    string userName,\n    int    userPoint)\n    public\n    returns(uint index)\n  {\n    if(isUser(userAddress)) throw;\n    addrStructs[userEmail].myAddr = userAddress;\n    userStructs[userAddress].userEmail = userEmail;\n    userStructs[userAddress].userName   = userName;\n    userStructs[userAddress].userPoint   = userPoint;\n    userStructs[userAddress].index     = userIndex.push(userAddress)-1;\n    LogNewUser(\n        userAddress, \n        userStructs[userAddress].index, \n        userEmail, \n        userName,\n        userPoint);\n    return userIndex.length-1;\n  }\n\n  function deleteUser(address userAddress) \n    public\n    returns(uint index)\n  {\n    if(!isUser(userAddress)) throw; \n    uint rowToDelete = userStructs[userAddress].index;\n    address keyToMove = userIndex[userIndex.length-1];\n    userIndex[rowToDelete] = keyToMove;\n    userStructs[keyToMove].index = rowToDelete; \n    userIndex.length--;\n    LogDeleteUser(\n        userAddress, \n        rowToDelete);\n    LogUpdateUser(\n        keyToMove, \n        rowToDelete, \n        userStructs[keyToMove].userEmail, \n        userStructs[keyToMove].userName);\n    return rowToDelete;\n  }\n  \n  function getUser(address userAddress)\n    public \n    constant\n    returns(address myAddr, string userEmail, string userName, int userPoint, uint index)\n  {\n    if(!isUser(userAddress)) throw; \n    return(\n      addrStructs[userStructs[userAddress].userEmail].myAddr,\n      userStructs[userAddress].userEmail,\n      userStructs[userAddress].userName, \n      userStructs[userAddress].userPoint, \n      userStructs[userAddress].index);\n  }\n\n  function getMyaddr(string userEmail)\n    public \n    constant\n    returns(address myAddr)\n  {\n    if(!isMyaddr(userEmail)) throw; \n    return addrStructs[userEmail].myAddr;\n  }\n  \n  function updateUserEmail(address userAddress, string userEmail) \n    public\n    returns(bool success) \n  {\n    if(!isUser(userAddress)) throw; \n    userStructs[userAddress].userEmail = userEmail;\n    LogUpdateUser(\n      userAddress, \n      userStructs[userAddress].index,\n      userEmail, \n      userStructs[userAddress].userName);\n    return true;\n  }\n  \n  function updateUserAge(address userAddress, string userName) \n    public\n    returns(bool success) \n  {\n    if(!isUser(userAddress)) throw; \n    userStructs[userAddress].userName = userName;\n    LogUpdateUser(\n      userAddress, \n      userStructs[userAddress].index,\n      userStructs[userAddress].userEmail, \n      userName);\n    return true;\n  }\n  \n  function updateUserPoint(address userAddress, int userPoint) \n    public\n    returns(bool success) \n  {\n    if(!isUser(userAddress)) throw; \n    require(userStructs[userAddress].userPoint + userPoint >= 0);\n    userStructs[userAddress].userPoint += userPoint;\n    \n    return true;\n  }\n\n  function getUserCount() \n    public\n    constant\n    returns(uint count)\n  {\n    return userIndex.length;\n  }\n\n  function getUserAtIndex(uint index)\n    public\n    constant\n    returns(address userAddress)\n  {\n    return userIndex[index];\n  }\n}",
  "sourcePath": "/home/getme/project-www/contracts/UserCrud.sol",
  "compiler": {
    "name": "solc",
    "version": "0.4.26+commit.4563c3fc.Emscripten.clang"
  },
  "schemaVersion": "2.0.3",
  "updatedAt": "2019-11-13T07:31:53.199Z"
}