{
  "contractName": "UserCrud",
  "abi": [
    {
      "anonymous": false,
      "inputs": [
        {
          "indexed": true,
          "name": "userAddress",
          "type": "address"
        },
        {
          "indexed": false,
          "name": "index",
          "type": "uint256"
        },
        {
          "indexed": false,
          "name": "userEmail",
          "type": "string"
        },
        {
          "indexed": false,
          "name": "userName",
          "type": "string"
        }
      ],
      "name": "LogNewUser",
      "type": "event"
    },
    {
      "anonymous": false,
      "inputs": [
        {
          "indexed": true,
          "name": "userAddress",
          "type": "address"
        },
        {
          "indexed": false,
          "name": "index",
          "type": "uint256"
        },
        {
          "indexed": false,
          "name": "userEmail",
          "type": "string"
        },
        {
          "indexed": false,
          "name": "userName",
          "type": "string"
        }
      ],
      "name": "LogUpdateUser",
      "type": "event"
    },
    {
      "anonymous": false,
      "inputs": [
        {
          "indexed": true,
          "name": "userAddress",
          "type": "address"
        },
        {
          "indexed": false,
          "name": "index",
          "type": "uint256"
        }
      ],
      "name": "LogDeleteUser",
      "type": "event"
    },
    {
      "constant": true,
      "inputs": [
        {
          "name": "userAddress",
          "type": "address"
        }
      ],
      "name": "isUser",
      "outputs": [
        {
          "name": "isIndeed",
          "type": "bool"
        }
      ],
      "payable": false,
      "stateMutability": "view",
      "type": "function"
    },
    {
      "constant": true,
      "inputs": [
        {
          "name": "userEmail",
          "type": "string"
        }
      ],
      "name": "isMyaddr",
      "outputs": [
        {
          "name": "isIndeed",
          "type": "bool"
        }
      ],
      "payable": false,
      "stateMutability": "view",
      "type": "function"
    },
    {
      "constant": false,
      "inputs": [
        {
          "name": "userAddress",
          "type": "address"
        },
        {
          "name": "userEmail",
          "type": "string"
        },
        {
          "name": "userName",
          "type": "string"
        },
        {
          "name": "userPoint",
          "type": "int256"
        }
      ],
      "name": "insertUser",
      "outputs": [
        {
          "name": "index",
          "type": "uint256"
        }
      ],
      "payable": false,
      "stateMutability": "nonpayable",
      "type": "function"
    },
    {
      "constant": false,
      "inputs": [
        {
          "name": "userAddress",
          "type": "address"
        }
      ],
      "name": "deleteUser",
      "outputs": [
        {
          "name": "index",
          "type": "uint256"
        }
      ],
      "payable": false,
      "stateMutability": "nonpayable",
      "type": "function"
    },
    {
      "constant": true,
      "inputs": [
        {
          "name": "userAddress",
          "type": "address"
        }
      ],
      "name": "getUser",
      "outputs": [
        {
          "name": "userEmail",
          "type": "string"
        },
        {
          "name": "userName",
          "type": "string"
        },
        {
          "name": "userPoint",
          "type": "int256"
        },
        {
          "name": "index",
          "type": "uint256"
        }
      ],
      "payable": false,
      "stateMutability": "view",
      "type": "function"
    },
    {
      "constant": true,
      "inputs": [
        {
          "name": "userEmail",
          "type": "string"
        }
      ],
      "name": "getMyaddr",
      "outputs": [
        {
          "name": "myAddr",
          "type": "address"
        },
        {
          "name": "userName",
          "type": "string"
        },
        {
          "name": "userPoint",
          "type": "int256"
        },
        {
          "name": "index",
          "type": "uint256"
        }
      ],
      "payable": false,
      "stateMutability": "view",
      "type": "function"
    },
    {
      "constant": false,
      "inputs": [
        {
          "name": "userAddress",
          "type": "address"
        },
        {
          "name": "userEmail",
          "type": "string"
        }
      ],
      "name": "updateUserEmail",
      "outputs": [
        {
          "name": "success",
          "type": "bool"
        }
      ],
      "payable": false,
      "stateMutability": "nonpayable",
      "type": "function"
    },
    {
      "constant": false,
      "inputs": [
        {
          "name": "userAddress",
          "type": "address"
        },
        {
          "name": "userName",
          "type": "string"
        }
      ],
      "name": "updateUserAge",
      "outputs": [
        {
          "name": "success",
          "type": "bool"
        }
      ],
      "payable": false,
      "stateMutability": "nonpayable",
      "type": "function"
    },
    {
      "constant": false,
      "inputs": [
        {
          "name": "userAddress",
          "type": "address"
        },
        {
          "name": "userPoint",
          "type": "int256"
        }
      ],
      "name": "updateUserPoint",
      "outputs": [
        {
          "name": "success",
          "type": "bool"
        }
      ],
      "payable": false,
      "stateMutability": "nonpayable",
      "type": "function"
    },
    {
      "constant": true,
      "inputs": [],
      "name": "getUserCount",
      "outputs": [
        {
          "name": "count",
          "type": "uint256"
        }
      ],
      "payable": false,
      "stateMutability": "view",
      "type": "function"
    },
    {
      "constant": true,
      "inputs": [
        {
          "name": "index",
          "type": "uint256"
        }
      ],
      "name": "getUserAtIndex",
      "outputs": [
        {
          "name": "userAddress",
          "type": "address"
        }
      ],
      "payable": false,
      "stateMutability": "view",
      "type": "function"
    }
  ],
  "bytecode": "0x608060405234801561001057600080fd5b50611c87806100206000396000f3006080604052600436106100af576000357c0100000000000000000000000000000000000000000000000000000000900463ffffffff168063042963de146100b45780631c8ee0ec146101355780634209fff11461019a5780634e1b90e4146101f55780635467a031146103185780635c60f2261461040557806364319ae61461045c5780636f77926b146104fd578063a04ba64e14610633578063b5cb15f7146106d4578063ffcc7bbf146106ff575b600080fd5b3480156100c057600080fd5b5061011b600480360381019080803590602001908201803590602001908080601f016020809104026020016040519081016040528093929190818152602001838380828437820191505050505050919291929050505061076c565b604051808215151515815260200191505060405180910390f35b34801561014157600080fd5b50610180600480360381019080803573ffffffffffffffffffffffffffffffffffffffff169060200190929190803590602001909291905050506108f0565b604051808215151515815260200191505060405180910390f35b3480156101a657600080fd5b506101db600480360381019080803573ffffffffffffffffffffffffffffffffffffffff1690602001909291905050506109b2565b604051808215151515815260200191505060405180910390f35b34801561020157600080fd5b5061025c600480360381019080803590602001908201803590602001908080601f0160208091040260200160405190810160405280939291908181526020018383808284378201915050505050509192919290505050610a7b565b604051808573ffffffffffffffffffffffffffffffffffffffff1673ffffffffffffffffffffffffffffffffffffffff16815260200180602001848152602001838152602001828103825285818151815260200191508051906020019080838360005b838110156102da5780820151818401526020810190506102bf565b50505050905090810190601f1680156103075780820380516001836020036101000a031916815260200191505b509550505050505060405180910390f35b34801561032457600080fd5b506103ef600480360381019080803573ffffffffffffffffffffffffffffffffffffffff169060200190929190803590602001908201803590602001908080601f0160208091040260200160405190810160405280939291908181526020018383808284378201915050505050509192919290803590602001908201803590602001908080601f016020809104026020016040519081016040528093929190818152602001838380828437820191505050505050919291929080359060200190929190505050610d1c565b6040518082815260200191505060405180910390f35b34801561041157600080fd5b50610446600480360381019080803573ffffffffffffffffffffffffffffffffffffffff1690602001909291905050506110cc565b6040518082815260200191505060405180910390f35b34801561046857600080fd5b506104e3600480360381019080803573ffffffffffffffffffffffffffffffffffffffff169060200190929190803590602001908201803590602001908080601f016020809104026020016040519081016040528093929190818152602001838380828437820191505050505050919291929050505061145b565b604051808215151515815260200191505060405180910390f35b34801561050957600080fd5b5061053e600480360381019080803573ffffffffffffffffffffffffffffffffffffffff169060200190929190505050611697565b604051808060200180602001858152602001848152602001838103835287818151815260200191508051906020019080838360005b8381101561058e578082015181840152602081019050610573565b50505050905090810190601f1680156105bb5780820380516001836020036101000a031916815260200191505b50838103825286818151815260200191508051906020019080838360005b838110156105f45780820151818401526020810190506105d9565b50505050905090810190601f1680156106215780820380516001836020036101000a031916815260200191505b50965050505050505060405180910390f35b34801561063f57600080fd5b506106ba600480360381019080803573ffffffffffffffffffffffffffffffffffffffff169060200190929190803590602001908201803590602001908080601f01602080910402602001604051908101604052809392919081815260200183838082843782019150505050505091929192905050506118fe565b604051808215151515815260200191505060405180910390f35b3480156106e057600080fd5b506106e9611b3a565b6040518082815260200191505060405180910390f35b34801561070b57600080fd5b5061072a60048036038101908080359060200190929190505050611b47565b604051808273ffffffffffffffffffffffffffffffffffffffff1673ffffffffffffffffffffffffffffffffffffffff16815260200191505060405180910390f35b600080600280549050141561078457600090506108eb565b6001826040518082805190602001908083835b6020831015156107bc5780518252602082019150602081019050602083039250610797565b6001836020036101000a038019825116818451168082178552505050505050905001915050908152602001604051809103902060000160009054906101000a900473ffffffffffffffffffffffffffffffffffffffff1673ffffffffffffffffffffffffffffffffffffffff1660026001846040518082805190602001908083835b602083101515610863578051825260208201915060208101905060208303925061083e565b6001836020036101000a0380198251168184511680821785525050505050509050019150509081526020016040518091039020600401548154811015156108a657fe5b9060005260206000200160009054906101000a900473ffffffffffffffffffffffffffffffffffffffff1673ffffffffffffffffffffffffffffffffffffffff161490505b919050565b60006108fb836109b2565b151561090657600080fd5b6000826000808673ffffffffffffffffffffffffffffffffffffffff1673ffffffffffffffffffffffffffffffffffffffff16815260200190815260200160002060030154011215151561095957600080fd5b816000808573ffffffffffffffffffffffffffffffffffffffff1673ffffffffffffffffffffffffffffffffffffffff168152602001908152602001600020600301600082825401925050819055506001905092915050565b60008060028054905014156109ca5760009050610a76565b8173ffffffffffffffffffffffffffffffffffffffff1660026000808573ffffffffffffffffffffffffffffffffffffffff1673ffffffffffffffffffffffffffffffffffffffff16815260200190815260200160002060040154815481101515610a3157fe5b9060005260206000200160009054906101000a900473ffffffffffffffffffffffffffffffffffffffff1673ffffffffffffffffffffffffffffffffffffffff161490505b919050565b60006060600080610a8b8561076c565b1515610a9657600080fd5b6001856040518082805190602001908083835b602083101515610ace5780518252602082019150602081019050602083039250610aa9565b6001836020036101000a038019825116818451168082178552505050505050905001915050908152602001604051809103902060000160009054906101000a900473ffffffffffffffffffffffffffffffffffffffff166001866040518082805190602001908083835b602083101515610b5d5780518252602082019150602081019050602083039250610b38565b6001836020036101000a03801982511681845116808217855250505050505090500191505090815260200160405180910390206002016001876040518082805190602001908083835b602083101515610bcb5780518252602082019150602081019050602083039250610ba6565b6001836020036101000a0380198251168184511680821785525050505050509050019150509081526020016040518091039020600301546001886040518082805190602001908083835b602083101515610c3a5780518252602082019150602081019050602083039250610c15565b6001836020036101000a038019825116818451168082178552505050505050905001915050908152602001604051809103902060040154828054600181600116156101000203166002900480601f016020809104026020016040519081016040528092919081815260200182805460018160011615610100020316600290048015610d065780601f10610cdb57610100808354040283529160200191610d06565b820191906000526020600020905b815481529060010190602001808311610ce957829003601f168201915b5050505050925093509350935093509193509193565b6000610d27856109b2565b15610d3157600080fd5b846000808773ffffffffffffffffffffffffffffffffffffffff1673ffffffffffffffffffffffffffffffffffffffff16815260200190815260200160002060000160006101000a81548173ffffffffffffffffffffffffffffffffffffffff021916908373ffffffffffffffffffffffffffffffffffffffff160217905550836000808773ffffffffffffffffffffffffffffffffffffffff1673ffffffffffffffffffffffffffffffffffffffff1681526020019081526020016000206001019080519060200190610e06929190611b8a565b50826000808773ffffffffffffffffffffffffffffffffffffffff1673ffffffffffffffffffffffffffffffffffffffff1681526020019081526020016000206002019080519060200190610e5c929190611b8a565b50816000808773ffffffffffffffffffffffffffffffffffffffff1673ffffffffffffffffffffffffffffffffffffffff16815260200190815260200160002060030181905550600160028690806001815401808255809150509060018203906000526020600020016000909192909190916101000a81548173ffffffffffffffffffffffffffffffffffffffff021916908373ffffffffffffffffffffffffffffffffffffffff160217905550036000808773ffffffffffffffffffffffffffffffffffffffff1673ffffffffffffffffffffffffffffffffffffffff168152602001908152602001600020600401819055508473ffffffffffffffffffffffffffffffffffffffff167f68fe1511aaad38b571731e160b828a8e6a49c68fdef96f5de75286e96dedca836000808873ffffffffffffffffffffffffffffffffffffffff1673ffffffffffffffffffffffffffffffffffffffff168152602001908152602001600020600401548686604051808481526020018060200180602001838103835285818151815260200191508051906020019080838360005b83811015611016578082015181840152602081019050610ffb565b50505050905090810190601f1680156110435780820380516001836020036101000a031916815260200191505b50838103825284818151815260200191508051906020019080838360005b8381101561107c578082015181840152602081019050611061565b50505050905090810190601f1680156110a95780820380516001836020036101000a031916815260200191505b509550505050505060405180910390a26001600280549050039050949350505050565b60008060006110da846109b2565b15156110e557600080fd5b6000808573ffffffffffffffffffffffffffffffffffffffff1673ffffffffffffffffffffffffffffffffffffffff168152602001908152602001600020600401549150600260016002805490500381548110151561114057fe5b9060005260206000200160009054906101000a900473ffffffffffffffffffffffffffffffffffffffff1690508060028381548110151561117d57fe5b9060005260206000200160006101000a81548173ffffffffffffffffffffffffffffffffffffffff021916908373ffffffffffffffffffffffffffffffffffffffff160217905550816000808373ffffffffffffffffffffffffffffffffffffffff1673ffffffffffffffffffffffffffffffffffffffff1681526020019081526020016000206004018190555060028054809190600190036112209190611c0a565b508373ffffffffffffffffffffffffffffffffffffffff167f9a67af531bfbfd34f63109e83cfab08e30f92a1827d5c3f50e8fa815469ff9f2836040518082815260200191505060405180910390a28073ffffffffffffffffffffffffffffffffffffffff167ff25d453e4228f2cf20319526966f1443a03fff8798d4cb4443f8de2de9af3202836000808573ffffffffffffffffffffffffffffffffffffffff1673ffffffffffffffffffffffffffffffffffffffff1681526020019081526020016000206001016000808673ffffffffffffffffffffffffffffffffffffffff1673ffffffffffffffffffffffffffffffffffffffff1681526020019081526020016000206002016040518084815260200180602001806020018381038352858181546001816001161561010002031660029004815260200191508054600181600116156101000203166002900480156113bd5780601f10611392576101008083540402835291602001916113bd565b820191906000526020600020905b8154815290600101906020018083116113a057829003601f168201915b50508381038252848181546001816001161561010002031660029004815260200191508054600181600116156101000203166002900480156114405780601f1061141557610100808354040283529160200191611440565b820191906000526020600020905b81548152906001019060200180831161142357829003601f168201915b50509550505050505060405180910390a28192505050919050565b6000611466836109b2565b151561147157600080fd5b816000808573ffffffffffffffffffffffffffffffffffffffff1673ffffffffffffffffffffffffffffffffffffffff16815260200190815260200160002060010190805190602001906114c6929190611b8a565b508273ffffffffffffffffffffffffffffffffffffffff167ff25d453e4228f2cf20319526966f1443a03fff8798d4cb4443f8de2de9af32026000808673ffffffffffffffffffffffffffffffffffffffff1673ffffffffffffffffffffffffffffffffffffffff16815260200190815260200160002060040154846000808873ffffffffffffffffffffffffffffffffffffffff1673ffffffffffffffffffffffffffffffffffffffff168152602001908152602001600020600201604051808481526020018060200180602001838103835285818151815260200191508051906020019080838360005b838110156115cd5780820151818401526020810190506115b2565b50505050905090810190601f1680156115fa5780820380516001836020036101000a031916815260200191505b5083810382528481815460018160011615610100020316600290048152602001915080546001816001161561010002031660029004801561167c5780601f106116515761010080835404028352916020019161167c565b820191906000526020600020905b81548152906001019060200180831161165f57829003601f168201915b50509550505050505060405180910390a26001905092915050565b6060806000806116a6856109b2565b15156116b157600080fd5b6000808673ffffffffffffffffffffffffffffffffffffffff1673ffffffffffffffffffffffffffffffffffffffff1681526020019081526020016000206001016000808773ffffffffffffffffffffffffffffffffffffffff1673ffffffffffffffffffffffffffffffffffffffff1681526020019081526020016000206002016000808873ffffffffffffffffffffffffffffffffffffffff1673ffffffffffffffffffffffffffffffffffffffff168152602001908152602001600020600301546000808973ffffffffffffffffffffffffffffffffffffffff1673ffffffffffffffffffffffffffffffffffffffff16815260200190815260200160002060040154838054600181600116156101000203166002900480601f01602080910402602001604051908101604052809291908181526020018280546001816001161561010002031660029004801561184c5780601f106118215761010080835404028352916020019161184c565b820191906000526020600020905b81548152906001019060200180831161182f57829003601f168201915b50505050509350828054600181600116156101000203166002900480601f0160208091040260200160405190810160405280929190818152602001828054600181600116156101000203166002900480156118e85780601f106118bd576101008083540402835291602001916118e8565b820191906000526020600020905b8154815290600101906020018083116118cb57829003601f168201915b5050505050925093509350935093509193509193565b6000611909836109b2565b151561191457600080fd5b816000808573ffffffffffffffffffffffffffffffffffffffff1673ffffffffffffffffffffffffffffffffffffffff1681526020019081526020016000206002019080519060200190611969929190611b8a565b508273ffffffffffffffffffffffffffffffffffffffff167ff25d453e4228f2cf20319526966f1443a03fff8798d4cb4443f8de2de9af32026000808673ffffffffffffffffffffffffffffffffffffffff1673ffffffffffffffffffffffffffffffffffffffff168152602001908152602001600020600401546000808773ffffffffffffffffffffffffffffffffffffffff1673ffffffffffffffffffffffffffffffffffffffff16815260200190815260200160002060010185604051808481526020018060200180602001838103835285818154600181600116156101000203166002900481526020019150805460018160011615610100020316600290048015611ab95780601f10611a8e57610100808354040283529160200191611ab9565b820191906000526020600020905b815481529060010190602001808311611a9c57829003601f168201915b5050838103825284818151815260200191508051906020019080838360005b83811015611af3578082015181840152602081019050611ad8565b50505050905090810190601f168015611b205780820380516001836020036101000a031916815260200191505b509550505050505060405180910390a26001905092915050565b6000600280549050905090565b6000600282815481101515611b5857fe5b9060005260206000200160009054906101000a900473ffffffffffffffffffffffffffffffffffffffff169050919050565b828054600181600116156101000203166002900490600052602060002090601f016020900481019282601f10611bcb57805160ff1916838001178555611bf9565b82800160010185558215611bf9579182015b82811115611bf8578251825591602001919060010190611bdd565b5b509050611c069190611c36565b5090565b815481835581811115611c3157818360005260206000209182019101611c309190611c36565b5b505050565b611c5891905b80821115611c54576000816000905550600101611c3c565b5090565b905600a165627a7a7230582097db873a7ba7c00a308a7ac651f55e41f9699647f94294d59b0d9affe64cc26a0029",
  "source": "pragma solidity ^0.4.6;\n\ncontract UserCrud {\n\n  struct UserStruct {\n    address myAddr;\n    string userEmail;\n    string userName;\n    int userPoint;\n    uint index;\n  }\n  \n  mapping(address => UserStruct) private userStructs;\n  mapping(string => UserStruct) private addrStructs;\n  address[] private userIndex;\n\n  event LogNewUser   (address indexed userAddress, uint index, string userEmail, string userName);\n  event LogUpdateUser(address indexed userAddress, uint index, string userEmail, string userName);\n  event LogDeleteUser(address indexed userAddress, uint index);\n  \n  function isUser(address userAddress)\n    public \n    constant\n    returns(bool isIndeed) \n  {\n    if(userIndex.length == 0) return false;\n    return (userIndex[userStructs[userAddress].index] == userAddress);\n  }\n\n  function isMyaddr(string userEmail)\n    public \n    constant\n    returns(bool isIndeed) \n  {\n    if(userIndex.length == 0) return false;\n    return (userIndex[addrStructs[userEmail].index] == addrStructs[userEmail].myAddr);\n  }\n\n  function insertUser(\n    address userAddress, \n    string userEmail, \n    string userName,\n    int    userPoint) \n    public\n    returns(uint index)\n  {\n    if(isUser(userAddress)) throw;\n    userStructs[userAddress].myAddr = userAddress;\n    userStructs[userAddress].userEmail = userEmail;\n    userStructs[userAddress].userName   = userName;\n    userStructs[userAddress].userPoint   = userPoint;\n    userStructs[userAddress].index     = userIndex.push(userAddress)-1;\n    LogNewUser(\n        userAddress, \n        userStructs[userAddress].index, \n        userEmail, \n        userName);\n    return userIndex.length-1;\n  }\n\n  function deleteUser(address userAddress) \n    public\n    returns(uint index)\n  {\n    if(!isUser(userAddress)) throw; \n    uint rowToDelete = userStructs[userAddress].index;\n    address keyToMove = userIndex[userIndex.length-1];\n    userIndex[rowToDelete] = keyToMove;\n    userStructs[keyToMove].index = rowToDelete; \n    userIndex.length--;\n    LogDeleteUser(\n        userAddress, \n        rowToDelete);\n    LogUpdateUser(\n        keyToMove, \n        rowToDelete, \n        userStructs[keyToMove].userEmail, \n        userStructs[keyToMove].userName);\n    return rowToDelete;\n  }\n  \n  function getUser(address userAddress)\n    public \n    constant\n    returns(string userEmail, string userName, int userPoint, uint index)\n  {\n    if(!isUser(userAddress)) throw; \n    return(\n      userStructs[userAddress].userEmail, \n      userStructs[userAddress].userName, \n      userStructs[userAddress].userPoint, \n      userStructs[userAddress].index);\n  }\n\n  function getMyaddr(string userEmail)\n    public \n    constant\n    returns(address myAddr, string userName, int userPoint, uint index)\n  {\n    if(!isMyaddr(userEmail)) throw; \n    return(\n      addrStructs[userEmail].myAddr, \n      addrStructs[userEmail].userName, \n      addrStructs[userEmail].userPoint,\n      addrStructs[userEmail].index);\n  }\n  \n  function updateUserEmail(address userAddress, string userEmail) \n    public\n    returns(bool success) \n  {\n    if(!isUser(userAddress)) throw; \n    userStructs[userAddress].userEmail = userEmail;\n    LogUpdateUser(\n      userAddress, \n      userStructs[userAddress].index,\n      userEmail, \n      userStructs[userAddress].userName);\n    return true;\n  }\n  \n  function updateUserAge(address userAddress, string userName) \n    public\n    returns(bool success) \n  {\n    if(!isUser(userAddress)) throw; \n    userStructs[userAddress].userName = userName;\n    LogUpdateUser(\n      userAddress, \n      userStructs[userAddress].index,\n      userStructs[userAddress].userEmail, \n      userName);\n    return true;\n  }\n  \n  function updateUserPoint(address userAddress, int userPoint) \n    public\n    returns(bool success) \n  {\n    if(!isUser(userAddress)) throw; \n    require(userStructs[userAddress].userPoint + userPoint >= 0);\n    userStructs[userAddress].userPoint += userPoint;\n    \n    return true;\n  }\n\n  function getUserCount() \n    public\n    constant\n    returns(uint count)\n  {\n    return userIndex.length;\n  }\n\n  function getUserAtIndex(uint index)\n    public\n    constant\n    returns(address userAddress)\n  {\n    return userIndex[index];\n  }\n}",
  "sourcePath": "/home/admin/git/project-www/contracts/UserCrud.sol",
  "compiler": {
    "name": "solc",
    "version": "0.4.26+commit.4563c3fc.Emscripten.clang"
  },
  "schemaVersion": "2.0.3",
  "updatedAt": "2019-11-06T07:11:01.500Z"
}